:020000040000FA
:060000000A128A1110280B
:10000800FE00030EF4000A08F500831203137F08AC
:10001800F6000A128A1119280A128A111328F70100
:10002800F80183010A128A11EF2C0C1F1C281D28C5
:100038009E2A1F0CF200720C0F39003A031D252866
:10004800262842281F08C33904389F0008182D287D
:100058002E28322895011E089B00972A88183528D3
:1000680036283A281E0895009B01972A08193D282A
:100078003E28412895019B01972A972A1F0CF200D8
:10008800720C0F39013A031D4A284B28D8281E083C
:10009800F200F3017208F7007308F8001F08C3396B
:1000A80008389F007808803AFF0080307F02031DDF
:1000B8005F283330770203186228632868280A12F9
:1000C8008A11D6240A128A117808803AFF008030F3
:1000D8007F02031D7128663077020318742875287B
:1000E80087287808803AFF0080307F02031D7E2829
:1000F80033307702031C8128822887280A128A1144
:10010800BD240A128A117808803AFF0080307F02E5
:10011800031D902899307702031893289428A6285D
:100128007808803AFF0080307F02031D9D286630E2
:100138007702031CA028A128A6280A128A11A42441
:100148000A128A117808803AFF0080307F02031D66
:10015800AF28CC3077020318B228B328C52878080E
:10016800803AFF0080307F02031DBC289930770257
:10017800031CBF28C028C5280A128A118B240A121A
:100188008A117808803AFF0080307F02031DCE284C
:10019800CC307702031CD128D228972A0A128A1158
:1001A80072240A128A11972A1F0CF200720C0F3956
:1001B800023A031DE028E1286E291E08F200F30127
:1001C8007208F7007308F8001F08C3390C389F003D
:1001D8007808803AFF0080307F02031DF52833300D
:1001E80077020318F828F928FE280A128A115924D8
:1001F8000A128A117808803AFF0080307F02031DB6
:1002080007296630770203180A290B291D2978085F
:10021800803AFF0080307F02031D142933307702B3
:10022800031C172918291D290A128A1140240A12A9
:100238008A117808803AFF0080307F02031D262942
:1002480099307702031829292A293C297808803A05
:10025800FF0080307F02031D332966307702031CBC
:10026800362937293C290A128A1127240A128A11A9
:100278007808803AFF0080307F02031D4529CC3082
:1002880077020318482949295B297808803AFF0032
:1002980080307F02031D522999307702031C5529AB
:1002A80056295B290A128A110E240A128A11780823
:1002B800803AFF0080307F02031D6429CC3077022A
:1002C800031C67296829972A0A128A11F5230A123A
:1002D8008A11972A1F0CF200720C0F39033A031D7A
:1002E80076297729042A1E08F200F3017208F7001C
:1002F8007308F8001F08C33910389F007808803A3F
:10030800FF0080307F02031D8B29333077020318EA
:100318008E298F2994290A128A11DC230A128A113C
:100328007808803AFF0080307F02031D9D296630DF
:1003380077020318A029A129B3297808803AFF0079
:1003480080307F02031DAA2933307702031CAD29B0
:10035800AE29B3290A128A11C3230A128A1178080E
:10036800803AFF0080307F02031DBC299930770254
:100378000318BF29C029D2297808803AFF008030A5
:100388007F02031DC92966307702031CCC29CD29B9
:10039800D2290A128A11AA230A128A117808803AE5
:1003A800FF0080307F02031DDB29CC307702031861
:1003B800DE29DF29F1297808803AFF0080307F02A2
:1003C800031DE82999307702031CEB29EC29F12950
:1003D8000A128A1191230A128A117808803AFF00BA
:1003E80080307F02031DFA29CC307702031CFD29D7
:1003F800FE29972A0A128A1178230A128A11972A43
:100408001F0CF200720C0F39043A031D0C2A0D2A36
:10041800972A1E08F200F3017208F7007308F80023
:10042800C3309F057808803AFF0080307F02031DA3
:100438001F2A333077020318222A232A282A0A126D
:100448008A115F230A128A117808803AFF008030E7
:100458007F02031D312A663077020318342A352AB1
:10046800472A7808803AFF0080307F02031D3E2A21
:1004780033307702031C412A422A472A0A128A117A
:1004880046230A128A117808803AFF0080307F02DA
:10049800031D502A993077020318532A542A662AD2
:1004A8007808803AFF0080307F02031D5D2A66309D
:1004B8007702031C602A612A662A0A128A112D23F0
:1004C8000A128A117808803AFF0080307F02031DE3
:1004D8006F2ACC3077020318722A732A852A780883
:1004E800803AFF0080307F02031D7C2A9930770212
:1004F800031C7F2A802A852A0A128A1114230A12C9
:100508008A117808803AFF0080307F02031D8E2A06
:10051800CC307702031C912A922A972A0A128A1150
:10052800FB220A128A112130F200F20B992A831257
:1005380003130C137608FF0075088A00740E8300F5
:10054800FE0E7E0E09001F308316031788008901EE
:10055800FF308316031385000610861006118611D6
:10056800081488140815831203138501880186016D
:100578008701831603130F178F160F160F14C33036
:10058800831203139F059F171F131F14831603134A
:100598009F131F129F1207158714FA3092003F30DD
:1005A8008312031397051708F0390C3897001D12AA
:1005B8009D120F309D040F309500CF3097050F30F6
:1005C8009B008C100330920412158C1CEC2AED2A27
:1005D800E92A8C1083160313071187108B178312CF
:1005E80003130C13831603130C170B17080083123D
:1005F800031386150630F1003030F000F00B022BA3
:10060800F10B022B00008312031386112D30F10029
:100618002630F000F00B0E2BF10B0E2B000008001B
:100628008312031386150530F1008A30F000F00BB1
:100638001B2BF10B1B2B0000831203138611303088
:10064800F1006530F000F00B272BF10B272B2C2B3A
:1006580008008312031386150430F100E430F0001B
:10066800F00B342BF10B342B00008312031386118B
:100678003130F1000B30F000F00B402BF10B402B28
:10068800452B08008312031386150430F1003D3012
:10069800F000F00B4D2BF10B4D2B522B8312031353
:1006A80086113130F100B230F000F00B592BF10B0C
:1006B800592B00000800831203138615C730F00079
:1006C800652B662BF00B642B692B6A2B6B2B831223
:1006D800031386113330F1001F30F000F00B722B3A
:1006E800F10B722B772B08008312031306150630C3
:1006F800F1003030F000F00B7F2BF10B7F2B000066
:100708008312031306112D30F1002630F000F00B90
:100718008B2BF10B8B2B000008008312031306159B
:100728000530F1008A30F000F00B982BF10B982B74
:1007380000008312031306113030F1006530F00019
:10074800F00BA42BF10BA42BA92B08008312031385
:1007580006150430F100E430F000F00BB12BF10B7A
:10076800B12B00008312031306113130F1000B3056
:10077800F000F00BBD2BF10BBD2BC22B0800831230
:10078800031306150430F1003D30F000F00BCA2BBE
:10079800F10BCA2BCF2B8312031306113130F10052
:1007A800B230F000F00BD62BF10BD62B000008006E
:1007B800831203130615C730F000E22BE32BF00B6E
:1007C800E12BE62BE72BE82B8312031306113330BA
:1007D800F1001F30F000F00BEF2BF10BEF2BF42B97
:1007E80008008312031386140630F1003030F0003D
:1007F800F00BFC2BF10BFC2B00008312031386106B
:100808002D30F1002630F000F00B082CF10B082CED
:10081800000008008312031386140530F1008A30A3
:10082800F000F00B152CF10B152C000083120313AC
:1008380086103030F1006530F000F00B212CF10B00
:10084800212C262C08008312031386140430F1008F
:10085800E430F000F00B2E2CF10B2E2C000083124C
:10086800031386103130F1000B30F000F00B3A2CF6
:10087800F10B3A2C3F2C0800831203138614043022
:10088800F1003D30F000F00B472CF10B472C4C2CBD
:100898008312031386103130F100B230F000F00BF0
:1008A800532CF10B532C00000800831203138614F9
:1008B800C730F0005F2C602CF00B5E2C632C642C8E
:1008C800652C8312031386103330F1001F30F000BB
:1008D800F00B6C2CF10B6C2C712C08008312031399
:1008E80006140630F1003030F000F00B792CF10BD3
:1008F800792C00008312031306102D30F1002630E6
:10090800F000F00B852CF10B852C000008008312F9
:10091800031306140530F1008A30F000F00B922C16
:10092800F10B922C00008312031306103030F100F3
:100938006530F000F00B9E2CF10B9E2CA32C0800C8
:100948008312031306140430F100E430F000F00BB6
:10095800AB2CF10BAB2C00008312031306103130C3
:10096800F1000B30F000F00BB72CF10BB72CBC2CBE
:1009780008008312031306140430F1003D30F00020
:10098800F00BC42CF10BC42CC92C831203130610D2
:100998003130F100B230F000F00BD02CF10BD02C3C
:1009A80000000800831203130614C730F000DC2C83
:1009B800DD2CF00BDB2CE02CE12CE22C8312031352
:1009C80006103330F1001F30F000F00BE92CF10B6A
:1009D800E92CEE2C08000A128A11A7220A128A11A1
:0E09E800831203139F14F42C0A128A11102894
:04400E00D428FF3F74
:00000001FF
