:020000040000FA
:060000000A128A110C280F
:10000800FE00030EF2000A08F3000A128A111528EE
:100018000A128A110F28F401F50183010A128A11C4
:100028000629831203130C1F1A281B287A281F0C71
:10003800F000700C0F39013A031D232824284B289F
:10004800C3309F051E08F0000310700C7D3E9B0016
:100058001E080139F000F00EF00D1D087006DF399A
:1000680070069D00831603131E08F0000730031066
:10007800F00CFF3E031D3B287008F100F10E8312BF
:1000880003131D087106EF3971069D0073281F08B8
:10009800C33904389F001E08F0000310700C7D3E21
:1000A80095001E080139F000F00EF00D17087006D3
:1000B800DF3970069700831603131E08F000073017
:1000C8000310F00CFF3E031D64287008F100F10EC8
:1000D8008312031317087106EF3971069700213050
:1000E800F000F00B7528831203130C130B1C7D28EA
:1000F8007E28A5280618812882288D28740875046A
:10010800031D872888288D2809140130F400003041
:10011800F5008618902891289C2874087504031DFA
:10012800962897289C2889140130F4000030F5009F
:1001380006199F28A028A42809108910F401F501A0
:100148000B1073088A00720E8300FE0E7E0E0900E3
:1001580003308316031788008901FF3083160313C1
:1001680085000910891006148614061583120313D6
:100178008501860189018701831603130F178F16DE
:100188000F160F14811307309500161496141615C0
:10019800C330831203139F059F171F131F14831661
:1001A80003139F131F129F1207158714FA3092002A
:1001B8003F308312031397051708F0390C3897005E
:1001C8001D129D120F309D040F309500CF309705FA
:1001D8000F309B008C100330920412158C1CF528EC
:1001E800F628F2288C1083160313071187108B1733
:1001F8000B148B15831203130C13831603130C179C
:100208000B1708000A128A11AC200A128A118312ED
:0C02180003139F140B290A128A110C28F2
:04400E00D428FF3F74
:00000001FF
