:020000040000FA
:060000000A128A110C280F
:10000800FE00030EF1000A08F2000A128A1167289E
:100018000A128A110F28F301F40183010A128A11C6
:100028009B2801308316031788008901FF30831647
:100038000313850009108910081488140815831201
:1000480003138501880189018701831603130F179C
:100058008F160F160F14C330831203139F059F17B3
:100068001F131F14831603139F131F129F120715C4
:100078008714FA3092003F3083120313970517084C
:10008800F0390C3897001D129D120F309D040F3067
:100098009500CF3097050F309B008C1003309204E9
:1000A80012158C1C5828592855288C1083160313B0
:1000B800071187108B17831203130C13831603136E
:1000C8000C170B170800831203130C1F6C286D28DC
:1000D80094281F0CF000700C0F39003A031D752886
:1000E80076289428081879287A287E2895011E08E9
:1000F8009B008C2888188128822886281E0895004D
:100108009B018C28081989288A288C2895019B012D
:100118004230F000F00B8E280000831203130C13FA
:1001280072088A00710E8300FE0E7E0E09000A1204
:100138008A1115200A128A11831203139F14A0280A
:060148000A128A110C28C6
:04400E00D428FF3F74
:00000001FF
