:020000040000FA
:060000000A128A11122809
:10000800FE00030E83120313AB000408AC000A08B9
:10001800AD007F08AE000A128A1127280A128A1139
:100028001528FA01FB01FC01FD0183120313A0014D
:10003800A101A201A301A401A501A601A7018301B1
:100048000A128A11F22F0C1F2A282B28EE291F0CBE
:10005800A800280C0F39003A031D332834287B28C0
:100068001F08C33904389F0008183B283C28542827
:10007800A301A30A95010430F0000030F1001E0826
:10008800A800A9012808F2002908F3000A128A1119
:1000980048270A128A117008831203139B00E42967
:1000A80088185728582872280230A8002808A30062
:1000B8000430F0000030F1001E08A800A90128084B
:1000C800F2002908F3000A128A1148270A128A1135
:1000D80070088312031395009B01E42908197528F9
:1000E80076287A28A30195019B01E429E4291F0CAD
:1000F800A800280C0F39013A031D83288428D62824
:100108001E08A8002808FD001F08C33908389F00EA
:1001180033307D0203189128922897280A128A15ED
:10012800BD240A128A1166307D0203189C289D2876
:10013800A82833307D02031CA228A328A8280A1265
:100148008A1585250A128A1199307D020318AD286F
:10015800AE28B92866307D02031CB328B428B92814
:100168000A128A159E250A128A11CC307D020318BC
:10017800BE28BF28CA2899307D02031CC428C52878
:10018800CA280A128A15B7250A128A11CC307D02AC
:10019800031CCF28D028E4290A128A15D6240A126B
:1001A8008A11E4291F0CA800280C0F39023A031DF4
:1001B800DE28DF2831291E08A8002808FC001F08AF
:1001C800C3390C389F0033307C020318EC28ED2823
:1001D800F2280A128A15EF240A128A1166307C0264
:1001E8000318F728F828032933307C02031CFD285C
:1001F800FE2803290A128A15D0250A128A11993075
:100208007C02031808290929142966307C02031C7A
:100218000E290F2914290A128A15E9250A128A11AA
:10022800CC307C02031819291A29252999307C0217
:10023800031C1F29202925290A128A1502260A12B9
:100248008A11CC307C02031C2A292B29E4290A12A2
:100258008A1508250A128A11E4291F0CA800280CFF
:100268000F39033A031D39293A298C291E08A80099
:100278002808FB001F08C33910389F0033307B0261
:100288000318472948294D290A128A1521250A12D7
:100298008A1166307B020318522953295E293330AC
:1002A8007B02031C582959295E290A128A151B2624
:1002B8000A128A1199307B020318632964296F296D
:1002C80066307B02031C69296A296F290A128A157C
:1002D80034260A128A11CC307B0203187429752936
:1002E800802999307B02031C7A297B2980290A12EC
:1002F8008A154D260A128A11CC307B02031C8529E7
:100308008629E4290A128A153A250A128A11E4294B
:100318001F0CA800280C0F39043A031D94299529AD
:10032800E4291E08A8002808FA00C3309F053330C6
:100338007A020318A029A129A6290A128A15532589
:100348000A128A1166307A020318AB29AC29B72938
:1003580033307A02031CB129B229B7290A128A1547
:1003680066260A128A1199307A020318BC29BD2917
:10037800C82966307A02031CC229C329C8290A126F
:100388008A157F260A128A11CC307A020318CD29E1
:10039800CE29D92999307A02031CD329D429D929FD
:1003A8000A128A11DC240A128A11CC307A02031C40
:1003B800DE29DF29E4290A128A156C250A128A1116
:1003C800203083120313A800A80BE8290000831229
:1003D80003130C130B1CF129F229AD2A061AF5296F
:1003E800F629422A09141430A8002808F0007D08CC
:1003F8000A128A11D5270A128A111530831203139B
:10040800A8002808F0007C080A128A11D5270A12C9
:100418008A11163083120313A8002808F0007B08FD
:100428000A128A11D5270A128A1117308312031368
:10043800A8002808F0007A080A128A11D5270A129B
:100448008A11183083120313A8002808F000230823
:100458000A128A11D5270A128A110B308312031344
:10046800AA002630A9005D30A800A80B392AA90BDC
:10047800392AAA0B392A831203130910861A452A26
:10048800462A942A891414300A128A15AC240A12AE
:100498008A1183120313A8002808A70015300A122E
:1004A8008A15AC240A128A1183120313A80028089B
:1004B800A60016300A128A15AC240A128A11831271
:1004C8000313A8002808A50017300A128A15AC24BF
:1004D8000A128A1183120313A8002808A4001830EE
:1004E8000A128A15AC240A128A1183120313A8006F
:1004F8002808A2000A128A1598260A128A110B30B7
:1005080083120313AA002630A9005D30A800A80BA7
:100518008B2AA90B8B2AAA0B8B2A83120313891007
:10052800061B972A982AAC2A09150130A00000302A
:10053800A100A32A0A128A11B8220A128A11831268
:100548000313200321040319AA2AAB2A9E2A09119E
:100558000B102E08FF002D088A002C0884002B0E93
:100568008300FE0E7E0E09008230F900DD30F800AF
:10057800F80BBC2AF90BBC2AC12A9D30F100853042
:10058800F2000A128A11AF270A128A118230F90082
:10059800DD30F800F80BCE2AF90BCE2AD32A9F308B
:1005A800F1008630F2000A128A11AF270A128A1166
:1005B8008230F900DD30F800F80BE02AF90BE02A68
:1005C800E52A8D30F1008630F2000A128A11AF2731
:1005D8000A128A118230F900DD30F800F80BF22A8D
:1005E800F90BF22AF72A7A30F1008630F2000A1263
:1005F8008A11AF270A128A118230F900DD30F8001B
:10060800F80B042BF90B042B092B6630F10086300C
:10061800F2000A128A11AF270A128A1183120313F1
:100628008C1E172B182B122B31301A06031D1D2B6D
:100638001E2B9C2B8230F900DD30F800F80B222BA2
:10064800F90B222B272B0030F1008530F2000A121B
:100658008A11AF270A128A118230F900DD30F800BA
:10066800F80B342BF90B342B392B6030F100853023
:10067800F2000A128A11AF270A128A118230F90091
:10068800DD30F800F80B462BF90B462B4B2B7F304F
:10069800F1008530F2000A128A11AF270A128A1176
:1006A8008230F900DD30F800F80B582BF90B582B85
:1006B8005D2BF530F1008530F2000A128A11AF2760
:1006C8000A128A11831203138C1E6B2B6C2B662B58
:1006D80061301A06031D712B722B782B0A128A15AA
:1006E800EF240A128A119C2B62301A06031D7D2BF7
:1006F8007E2B842B0A128A1508250A128A119C2B34
:1007080063301A06031D892B8A2B902B0A128A152F
:10071800BD240A128A119C2B64301A06031D952BDE
:10072800962B9C2B0A128A15D6240A128A119C2B06
:100738003230831203131A06031DA32BA42B602C3B
:100748008230F900DD30F800F80BA82BF90BA82B44
:10075800AD2B2830F1008630F2000A128A11AF273B
:100768000A128A118230F900DD30F800F80BBA2B32
:10077800F90BBA2BBF2B5230F1008630F2000A1267
:100788008A11AF270A128A11831203138C1ECD2BEC
:10079800CE2BC82B65301A06031DD32BD42B172C50
:1007A8008230F900DD30F800F80BD82BF90BD82B84
:1007B800DD2B2230F1008530F2000A128A11AF27B2
:1007C8000A128A118230F900DD30F800F80BEA2BA2
:1007D800F90BEA2BEF2BBB30F1008530F2000A123F
:1007E8008A11AF270A128A11831203138C1EFD2B5C
:1007F800FE2BF82B36301A06031D032C042C092C6B
:100808000A128A1521250A128A1137308312031316
:100818001A06031D102C112C602C0A128A153A2571
:100828000A128A11602C66301A06031D1C2C1D2C16
:10083800602C8230F900DD30F800F80B212CF90B20
:10084800212C262C4130F1008530F2000A128A1141
:10085800AF270A128A118230F900DD30F800F80B50
:10086800332CF90B332C382CD830F1008530F200BA
:100878000A128A11AF270A128A11831203138C1ED7
:10088800462C472C412C38301A06031D4C2C4D2C75
:10089800522C0A128A1553250A128A1139308312EA
:1008A80003131A06031D592C5A2C602C0A128A1598
:1008B8006C250A128A11602C3330831203131A062E
:1008C800031D672C682CC12C8230F900DD30F8003C
:1008D800F80B6C2CF90B6C2C712C3D30F100863028
:1008E800F2000A128A11AF270A128A118230F9001F
:1008F800DD30F800F80B7E2CF90B7E2C832CB13000
:10090800F1008630F2000A128A11AF270A128A1102
:100918008230F900DD30F800F80B902CF90B902CA0
:10092800952CC230F1008630F2000A128A11AF27E6
:100938000A128A11831203138C1EA32CA42C9E2C3A
:1009480067301A06031DA92CAA2CAE2C95011E0887
:100958009B00C12C68301A06031DB32CB42CB82C8C
:100968001E0895009B01C12C69301A06031DBD2C79
:10097800BE2CC12C95019B01C12C34301A06031DD5
:10098800C62CC72CDB2CA001A1011230F100863047
:10099800F2000A128A11AF270A128A118230F9006E
:1009A800DD30F800F80BD62CF90BD62CDB2C080020
:1009B8008312031386150530F1008A30F000F00B1E
:1009C800E32CF10BE32C0000831203138611303063
:1009D800F1006530F000F00BEF2CF10BEF2CF42C4C
:1009E8000800F000831203130C1EFB2CFC2CF62CC1
:0609F800700899000800E0
:100A00000D3428346134293420344D346F34763435
:100A10006534723420346F346A346F347334203464
:100A2000613420346C346134203469347A34713464
:100A30007534693465347234643461342E3420344E
:100A40000D3400340D3428343634293420344D34F8
:100A50006F347634653472342034633465346A34E8
:100A60006134203470346134723461342034613440
:100A7000723472346934623461342E3420340D346B
:100A800000340D3428343834293420344D346F3454
:100A90007634653472342034633465346A346134B6
:100AA00020347034613472346134203461347234EF
:100AB00072346934623461342E3420340D3400349D
:100AC00028346234293420344D346F34763465341C
:100AD000723420346F346A346F34733420346134A8
:100AE00020346C34613420346434653472346534B9
:100AF0006334683461342E3420340D3400342834A7
:100B00006334293420344D346F3476346534723490
:100B100020346F346A346F34733420347034613469
:100B20007234613420346134723472346934623422
:100B300061342E3420340D3400340D345134753486
:100B40006534203461346334633469346F346E3413
:100B5000203464346534733465346134203465344E
:100B60006A346534633475347434613472343F34B8
:100B700020340D34003428343734293420344D34B3
:100B80006F347634653472342034633465346A34B7
:100B9000613420347034613472346134203461340F
:100BA000623461346A346F342E3420340D340034AE
:100BB00028343934293420344D346F347634653454
:100BC00072342034633465346A34613420347034D0
:100BD00061347234613420346134623461346A3493
:100BE0006F342E3420340D340034283464342934E6
:100BF00020344D346F3476346534723420346F349D
:100C00006A346F3473342034703461347234613434
:100C100020346134623461346A346F342E342034C9
:100C20000D3400340D34483461342034733461346D
:100C30006C34693464346F342034643465346C3417
:100C40002034553441345234543420340D3400347B
:100C50000D3428346534293420344D346F347634DF
:100C6000653472342034633465346A34613420343A
:100C700031342E3420340D3400340D3428346734AC
:100C80002934203444346534733465346E3472341A
:100C900072346F346C346C34613472342E342034DA
:100CA0000D34003428346634293420344D346F3404
:100CB0007634653472342034633465346A34613494
:100CC000203432342E3420340D340034283434347B
:100CD00029342034533461346C3469347234203410
:100CE000643465342034553441345234543420341F
:100CF0000D34003428343334293420344D344F3407
:100D000056344534523420344C3445344E34473410
:100D10005534413420340D340034283432342934ED
:100D200020344D344F345634453452342034433417
:100D300045344A344134533420340D3400340D34B6
:100D400028343134293420344D344F34563445342A
:100D5000523420344F344A344F34533420340D3419
:100D60000034283468342934203445346E347234E5
:100D700072346F346C346C34613472342E342034F9
:100D80000D34003428346934293420344434653433
:100D90007434653472342E3420340D3400341F30F2
:100DA0008316031788008901FF308316031385001B
:100DB00006108610061186110616861606170814E8
:100DC000881408150910891009118312031385016D
:100DD0008801860189018701831603130F178F1677
:100DE0000F160F14811370309500161696161617ED
:100DF000C330831203139F059F171F131F148316FD
:100E000003139F131F129F1207158714FA309200C5
:100E10003F308312031397051708F0390C389700F9
:100E20001D129D120F309D040F309500CF30970595
:100E30000F309B008C100330920412158C1C212F54
:100E4000222F1E2F8C1083160313071187101815DD
:100E500083160317871583160313181283120313BF
:100E60009817181683160313981683120313181372
:100E7000CF308316031399009A018B178312031343
:100E80000C13831603130C170B170B148B15080088
:100E9000F601F11F4C2F4D2F542FF009F109F00AE4
:100EA0000319F10AF601F60AF31F572F582F612F85
:100EB000F209F309F20A0319F30A0130F400740885
:100EC000F606F701F801700871040319682F692FFD
:100ED000A02FF501F50A772F01300310F00DF10D69
:100EE000FF3E031D6D2F0130F4007408F507F11F5C
:100EF0007A2F7B2F6C2F01300310F70DF80DFF3E7A
:100F0000031D7C2F71087302031D882F7008720265
:100F1000031C8B2F8C2F932F7008F2027108031C77
:100F2000F303F302771401300310F10CF00CFF3ED1
:100F3000031D942F0130F502031D9F2FA02F7B2F3F
:100F400076080319A42FA52FAA2FF709F809F70A85
:100F50000319F80A7808F1007708F00008007330E8
:100F6000F3007308F600BA2F77080A128A11F524E5
:100F70000A128A117208F4007108F300F10A0319C9
:100F8000F20A740883120313FF00730884000A1224
:100F90008A1500200A128A11F5007508F7007708F3
:100FA000031DD32FD42FB42F0800F1007008831233
:100FB00003178D0071088C00831603178C130C1512
:100FC0008B1355308D00AA308D008C1483120313BF
:100FD0000D1EEB2FEC2FE62F0D12831603170C11AD
:100FE0008B1308000A128A11CF260A128A11831263
:0C0FF00003139F14F72F0A128A11122815
:10100000FF1B0A2883137F1883170008840A03191B
:10101000FF0A08007F087F398A000408840A031940
:04102000FF0A820041
:10195800F1007108831203178D00831603178C1387
:101968000C14831203170C08F0007008F2007208B8
:101978000800831203130614C730F000C32CC42CCC
:10198800F00BC22CC72CC82CC92C831203130610C9
:101998003330F1001F30F000F00BD02CF10BD02CBD
:1019A800D52C08008312031306140630F1003030DA
:1019B800F000F00BDD2CF10BDD2C0000831203137B
:1019C80006102F30F100BF30F000F00BE92CF10BBE
:1019D800E92CEE2C0800831203138614C730F0009C
:1019E800F52CF62CF00BF42CF92CFA2CFB2C83128A
:1019F800031386103330F1001F30F000F00B022D76
:101A0800F10B022D072D08008312031386140630EC
:101A1800F1003030F000F00B0F2DF10B0F2D00000E
:101A28008312031386102F30F100BF30F000F00B43
:101A38001B2DF10B1B2D202D0800831203130615F7
:101A4800C730F000272D282DF00B262D2B2D2C2DFF
:101A58002D2D8312031306113330F1001F30F000CF
:101A6800F00B342DF10B342D392D0800831203139C
:101A780006150630F1003030F000F00B412DF10B67
:101A8800412D00008312031306112F30F100BF30DF
:101A9800F000F00B4D2DF10B4D2D522D0800831247
:101AA80003138615C730F000592D5A2DF00B582D09
:101AB8005D2D5E2D5F2D8312031386113330F100E7
:101AC8001F30F000F00B662DF10B662D6B2D080012
:101AD8008312031386150630F1003030F000F00B46
:101AE800732DF10B732D00008312031386112F3011
:101AF800F100BF30F000F00B7F2DF10B7F2D842D0E
:101B080008008312031306140430F1003D30F0007E
:101B1800F00B8C2DF10B8C2D912D831203130610D5
:101B28003130F100B230F000F00B982DF10B982D08
:101B3800000008008312031306140430F100E43097
:101B4800F000F00BA52DF10BA52D00008312031357
:101B580006103130F1000B30F000F00BB12DF10B15
:101B6800B12DB62D08008312031306140530F100B9
:101B78008A30F000F00BBE2DF10BBE2D0000831251
:101B8800031306103030F1006530F000F00BCA2D59
:101B9800F10BCA2DCF2D08008312031386140430CD
:101BA800F1003D30F000F00BD72DF10BD72DDC2DD7
:101BB8008312031386103130F100B230F000F00BBD
:101BC800E32DF10BE32D00000800831203138614A4
:101BD8000430F100E430F000F00BF02DF10BF02DA3
:101BE80000008312031386103130F1000B30F0002F
:101BF800F00BFC2DF10BFC2D012E080083120313B2
:101C080086140530F1008A30F000F00B092EF10B34
:101C1800092E00008312031386103030F10065305E
:101C2800F000F00B152EF10B152E1A2E080083125A
:101C3800031306150430F1003D30F000F00B222E9E
:101C4800F10B222E272E8312031306113130F100D7
:101C5800B230F000F00B2E2EF10B2E2E00000800F3
:101C68008312031306150430F100E430F000F00B82
:101C78003B2EF10B3B2E000083120313061131306B
:101C8800F1000B30F000F00B472EF10B472E4C2ED5
:101C980008008312031306150530F1008A30F0009E
:101CA800F00B542EF10B542E00008312031306116F
:101CB8003030F1006530F000F00B602EF10B602E33
:101CC800652E08008312031386150430F1003D3099
:101CD800F000F00B6D2EF10B6D2E722E8312031394
:101CE80086113130F100B230F000F00B792EF10B93
:101CF800792E000008008312031386150430F100C2
:101D0800E430F000F00B862EF10B862E00008312D3
:101D1800031386113130F1000B30F000F00B922ED6
:101D2800F10B922E972E08003330831203132702EB
:101D380003189F2EA02EA52E0A128A15BD240A125A
:101D48008A1566308312031327020318AC2EAD2EB2
:101D5800B82E33302702031CB22EB32EB82E0A1227
:101D68008A1585250A128A159930831203132702CA
:101D78000318BF2EC02ECB2E66302702031CC52E9B
:101D8800C62ECB2E0A128A159E250A128A15CC3029
:101D98008312031327020318D22ED32EDE2E993076
:101DA8002702031CD82ED92EDE2E0A128A15B72533
:101DB8000A128A15CC30831203132702031CE52E5E
:101DC800E62EEB2E0A128A15D6240A128A1533300B
:101DD8008312031326020318F22EF32EF82E0A128A
:101DE8008A15EF240A128A15663083120313260215
:101DF8000318FF2E002F0B2F33302602031C052F4C
:101E0800062F0B2F0A128A15D0250A128A15993027
:101E18008312031326020318122F132F1E2F663066
:101E28002602031C182F192F1E2F0A128A15E925BE
:101E38000A128A15CC308312031326020318252FA1
:101E4800262F312F99302602031C2B2F2C2F312FB0
:101E58000A128A1502260A128A15CC308312031335
:101E68002602031C382F392F3E2F0A128A150825FF
:101E78000A128A1533308312031325020318452FDB
:101E8800462F4B2F0A128A1521250A128A15663009
:101E98008312031325020318522F532F5E2F33305A
:101EA8002502031C582F592F5E2F0A128A151B264C
:101EB8000A128A1599308312031325020318652F15
:101EC800662F712F66302502031C6B2F6C2F712F24
:101ED8000A128A1534260A128A15CC308312031383
:101EE80025020318782F792F842F99302502031C97
:101EF8007E2F7F2F842F0A128A154D260A128A15E3
:101F0800CC30831203132502031C8B2F8C2F912FA7
:101F18000A128A153A250A128A15333083120313D6
:101F280024020318982F992F9E2F0A128A155325D9
:101F38000A128A1566308312031324020318A52F88
:101F4800A62FB12F33302402031CAB2FAC2FB12F97
:101F58000A128A1566260A128A1599308312031303
:101F680024020318B82FB92FC42F66302402031C8B
:101F7800BE2FBF2FC42F0A128A157F260A128A1570
:101F8800CC308312031324020318CB2FCC2FD72F66
:101F980099302402031CD12FD22FD72F0A128A116D
:101FA800DC240A128A15CC30831203132402031C82
:101FB800DE2FDF2FE42F0A128A156C250A128A15E4
:101FC800831203132203031DEA2FEB2FEE2F950133
:101FD8001E089B0002302206031DF32FF42FF72F53
:101FE8001E0895009B0102302206031DFC2FFD2FC1
:081FF800FF2F95019B01080079
:04400E00D420FF3F7C
:00000001FF
